{
  "contractName": "TaskToDo",
  "abi": [
    {
      "inputs": [],
      "stateMutability": "nonpayable",
      "type": "constructor"
    },
    {
      "inputs": [
        {
          "internalType": "uint256",
          "name": "",
          "type": "uint256"
        }
      ],
      "name": "tasks",
      "outputs": [
        {
          "internalType": "string",
          "name": "desc",
          "type": "string"
        },
        {
          "internalType": "enum TaskToDo.TaskStatus",
          "name": "status",
          "type": "uint8"
        }
      ],
      "stateMutability": "view",
      "type": "function",
      "constant": true
    },
    {
      "inputs": [
        {
          "internalType": "string",
          "name": "_desc",
          "type": "string"
        }
      ],
      "name": "addTask",
      "outputs": [],
      "stateMutability": "nonpayable",
      "type": "function"
    },
    {
      "inputs": [
        {
          "internalType": "uint256",
          "name": "id",
          "type": "uint256"
        }
      ],
      "name": "markTaskAsFinished",
      "outputs": [],
      "stateMutability": "nonpayable",
      "type": "function"
    },
    {
      "inputs": [],
      "name": "getAllTasks",
      "outputs": [
        {
          "components": [
            {
              "internalType": "string",
              "name": "desc",
              "type": "string"
            },
            {
              "internalType": "enum TaskToDo.TaskStatus",
              "name": "status",
              "type": "uint8"
            }
          ],
          "internalType": "struct TaskToDo.Task[]",
          "name": "",
          "type": "tuple[]"
        }
      ],
      "stateMutability": "view",
      "type": "function",
      "constant": true
    },
    {
      "inputs": [
        {
          "internalType": "uint256",
          "name": "id",
          "type": "uint256"
        }
      ],
      "name": "getTaskById",
      "outputs": [
        {
          "internalType": "string",
          "name": "",
          "type": "string"
        },
        {
          "internalType": "enum TaskToDo.TaskStatus",
          "name": "",
          "type": "uint8"
        }
      ],
      "stateMutability": "view",
      "type": "function",
      "constant": true
    },
    {
      "inputs": [
        {
          "internalType": "uint256",
          "name": "id",
          "type": "uint256"
        }
      ],
      "name": "deleteTask",
      "outputs": [],
      "stateMutability": "nonpayable",
      "type": "function"
    },
    {
      "inputs": [
        {
          "internalType": "uint256",
          "name": "id",
          "type": "uint256"
        },
        {
          "internalType": "string",
          "name": "_desc",
          "type": "string"
        }
      ],
      "name": "updateTaskDescription",
      "outputs": [],
      "stateMutability": "nonpayable",
      "type": "function"
    }
  ],
  "bytecode": "0x608060405234801561001057600080fd5b50336000806101000a81548173ffffffffffffffffffffffffffffffffffffffff021916908373ffffffffffffffffffffffffffffffffffffffff160217905550611292806100606000396000f3fe608060405234801561001057600080fd5b506004361061007d5760003560e01c8063779900b41161005b578063779900b4146100d6578063798ebb19146100f45780638d97767214610110578063976217cd146101415761007d565b8063560f319214610082578063672385621461009e5780636d3592a0146100ba575b600080fd5b61009c60048036038101906100979190610ba2565b610172565b005b6100b860048036038101906100b39190610d15565b61034d565b005b6100d460048036038101906100cf9190610ba2565b610480565b005b6100de6105a6565b6040516100eb9190610f5c565b60405180910390f35b61010e60048036038101906101099190610f7e565b6106d2565b005b61012a60048036038101906101259190610ba2565b6107e6565b604051610138929190611033565b60405180910390f35b61015b60048036038101906101569190610ba2565b6108af565b604051610169929190611033565b60405180910390f35b60008054906101000a900473ffffffffffffffffffffffffffffffffffffffff1673ffffffffffffffffffffffffffffffffffffffff163373ffffffffffffffffffffffffffffffffffffffff1614610200576040517f08c379a00000000000000000000000000000000000000000000000000000000081526004016101f7906110af565b60405180910390fd5b600180549050811115610248576040517f08c379a000000000000000000000000000000000000000000000000000000000815260040161023f9061111b565b60405180910390fd5b600180808054905061025a919061116a565b8154811061026b5761026a61119e565b5b90600052602060002090600202016001828154811061028d5761028c61119e565b5b906000526020600020906002020160008201816000019080546102af906111fc565b6102ba9291906109e8565b506001820160009054906101000a900460ff168160010160006101000a81548160ff021916908360018111156102f3576102f2610e12565b5b0217905550905050600180548061030d5761030c61122d565b5b6001900381819060005260206000209060020201600080820160006103329190610a75565b6001820160006101000a81549060ff02191690555050905550565b60008054906101000a900473ffffffffffffffffffffffffffffffffffffffff1673ffffffffffffffffffffffffffffffffffffffff163373ffffffffffffffffffffffffffffffffffffffff16146103db576040517f08c379a00000000000000000000000000000000000000000000000000000000081526004016103d2906110af565b60405180910390fd5b600160405180604001604052808381526020016000600181111561040257610401610e12565b5b8152509080600181540180825580915050600190039060005260206000209060020201600090919091909150600082015181600001908051906020019061044a929190610ab5565b5060208201518160010160006101000a81548160ff0219169083600181111561047657610475610e12565b5b0217905550505050565b60008054906101000a900473ffffffffffffffffffffffffffffffffffffffff1673ffffffffffffffffffffffffffffffffffffffff163373ffffffffffffffffffffffffffffffffffffffff161461050e576040517f08c379a0000000000000000000000000000000000000000000000000000000008152600401610505906110af565b60405180910390fd5b600180549050811115610556576040517f08c379a000000000000000000000000000000000000000000000000000000000815260040161054d9061111b565b60405180910390fd5b600180828154811061056b5761056a61119e565b5b906000526020600020906002020160010160006101000a81548160ff0219169083600181111561059e5761059d610e12565b5b021790555050565b60606001805480602002602001604051908101604052809291908181526020016000905b828210156106c957838290600052602060002090600202016040518060400160405290816000820180546105fd906111fc565b80601f0160208091040260200160405190810160405280929190818152602001828054610629906111fc565b80156106765780601f1061064b57610100808354040283529160200191610676565b820191906000526020600020905b81548152906001019060200180831161065957829003601f168201915b505050505081526020016001820160009054906101000a900460ff1660018111156106a4576106a3610e12565b5b60018111156106b6576106b5610e12565b5b81525050815260200190600101906105ca565b50505050905090565b60008054906101000a900473ffffffffffffffffffffffffffffffffffffffff1673ffffffffffffffffffffffffffffffffffffffff163373ffffffffffffffffffffffffffffffffffffffff1614610760576040517f08c379a0000000000000000000000000000000000000000000000000000000008152600401610757906110af565b60405180910390fd5b6001805490508211156107a8576040517f08c379a000000000000000000000000000000000000000000000000000000000815260040161079f9061111b565b60405180910390fd5b80600183815481106107bd576107bc61119e565b5b906000526020600020906002020160000190805190602001906107e1929190610ab5565b505050565b600181815481106107f657600080fd5b9060005260206000209060020201600091509050806000018054610819906111fc565b80601f0160208091040260200160405190810160405280929190818152602001828054610845906111fc565b80156108925780601f1061086757610100808354040283529160200191610892565b820191906000526020600020905b81548152906001019060200180831161087557829003601f168201915b5050505050908060010160009054906101000a900460ff16905082565b606060006001805490508311156108fb576040517f08c379a00000000000000000000000000000000000000000000000000000000081526004016108f29061111b565b60405180910390fd5b6001838154811061090f5761090e61119e565b5b9060005260206000209060020201600001600184815481106109345761093361119e565b5b906000526020600020906002020160010160009054906101000a900460ff1681805461095f906111fc565b80601f016020809104026020016040519081016040528092919081815260200182805461098b906111fc565b80156109d85780601f106109ad576101008083540402835291602001916109d8565b820191906000526020600020905b8154815290600101906020018083116109bb57829003601f168201915b5050505050915091509150915091565b8280546109f4906111fc565b90600052602060002090601f016020900481019282610a165760008555610a64565b82601f10610a275780548555610a64565b82800160010185558215610a6457600052602060002091601f016020900482015b82811115610a63578254825591600101919060010190610a48565b5b509050610a719190610b3b565b5090565b508054610a81906111fc565b6000825580601f10610a935750610ab2565b601f016020900490600052602060002090810190610ab19190610b3b565b5b50565b828054610ac1906111fc565b90600052602060002090601f016020900481019282610ae35760008555610b2a565b82601f10610afc57805160ff1916838001178555610b2a565b82800160010185558215610b2a579182015b82811115610b29578251825591602001919060010190610b0e565b5b509050610b379190610b3b565b5090565b5b80821115610b54576000816000905550600101610b3c565b5090565b6000604051905090565b600080fd5b600080fd5b6000819050919050565b610b7f81610b6c565b8114610b8a57600080fd5b50565b600081359050610b9c81610b76565b92915050565b600060208284031215610bb857610bb7610b62565b5b6000610bc684828501610b8d565b91505092915050565b600080fd5b600080fd5b6000601f19601f8301169050919050565b7f4e487b7100000000000000000000000000000000000000000000000000000000600052604160045260246000fd5b610c2282610bd9565b810181811067ffffffffffffffff82111715610c4157610c40610bea565b5b80604052505050565b6000610c54610b58565b9050610c608282610c19565b919050565b600067ffffffffffffffff821115610c8057610c7f610bea565b5b610c8982610bd9565b9050602081019050919050565b82818337600083830152505050565b6000610cb8610cb384610c65565b610c4a565b905082815260208101848484011115610cd457610cd3610bd4565b5b610cdf848285610c96565b509392505050565b600082601f830112610cfc57610cfb610bcf565b5b8135610d0c848260208601610ca5565b91505092915050565b600060208284031215610d2b57610d2a610b62565b5b600082013567ffffffffffffffff811115610d4957610d48610b67565b5b610d5584828501610ce7565b91505092915050565b600081519050919050565b600082825260208201905092915050565b6000819050602082019050919050565b600081519050919050565b600082825260208201905092915050565b60005b83811015610dc4578082015181840152602081019050610da9565b83811115610dd3576000848401525b50505050565b6000610de482610d8a565b610dee8185610d95565b9350610dfe818560208601610da6565b610e0781610bd9565b840191505092915050565b7f4e487b7100000000000000000000000000000000000000000000000000000000600052602160045260246000fd5b60028110610e5257610e51610e12565b5b50565b6000819050610e6382610e41565b919050565b6000610e7382610e55565b9050919050565b610e8381610e68565b82525050565b60006040830160008301518482036000860152610ea68282610dd9565b9150506020830151610ebb6020860182610e7a565b508091505092915050565b6000610ed28383610e89565b905092915050565b6000602082019050919050565b6000610ef282610d5e565b610efc8185610d69565b935083602082028501610f0e85610d7a565b8060005b85811015610f4a5784840389528151610f2b8582610ec6565b9450610f3683610eda565b925060208a01995050600181019050610f12565b50829750879550505050505092915050565b60006020820190508181036000830152610f768184610ee7565b905092915050565b60008060408385031215610f9557610f94610b62565b5b6000610fa385828601610b8d565b925050602083013567ffffffffffffffff811115610fc457610fc3610b67565b5b610fd085828601610ce7565b9150509250929050565b600082825260208201905092915050565b6000610ff682610d8a565b6110008185610fda565b9350611010818560208601610da6565b61101981610bd9565b840191505092915050565b61102d81610e68565b82525050565b6000604082019050818103600083015261104d8185610feb565b905061105c6020830184611024565b9392505050565b7f4f6e6c79204f776e657220686173207269676874210000000000000000000000600082015250565b6000611099601583610fda565b91506110a482611063565b602082019050919050565b600060208201905081810360008301526110c88161108c565b9050919050565b7f5468657265206973206e6f2073756368207461736b2021000000000000000000600082015250565b6000611105601783610fda565b9150611110826110cf565b602082019050919050565b60006020820190508181036000830152611134816110f8565b9050919050565b7f4e487b7100000000000000000000000000000000000000000000000000000000600052601160045260246000fd5b600061117582610b6c565b915061118083610b6c565b9250828210156111935761119261113b565b5b828203905092915050565b7f4e487b7100000000000000000000000000000000000000000000000000000000600052603260045260246000fd5b7f4e487b7100000000000000000000000000000000000000000000000000000000600052602260045260246000fd5b6000600282049050600182168061121457607f821691505b602082108103611227576112266111cd565b5b50919050565b7f4e487b7100000000000000000000000000000000000000000000000000000000600052603160045260246000fdfea26469706673582212201796dc4b8bc447daab6cc51514269d5bb159341bbf33a30c20f8e65c66abd1aa64736f6c634300080d0033",
  "immutableReferences": {},
  "source": "// SPDX-License-Identifier: GPL-3.0\r\npragma solidity ^0.8.0;\r\n\r\ncontract TaskToDo {\r\n\r\n    enum TaskStatus {Pending, Finished}\r\n    address owner;\r\n    struct Task {\r\n        string desc;\r\n        TaskStatus status;\r\n    }\r\n\r\n    Task[] public tasks;\r\n\r\n    constructor() {\r\n        owner = msg.sender;\r\n    }\r\n\r\n    modifier onlyOwner {\r\n        require(msg.sender == owner, \"Only Owner has right!\");\r\n        _;\r\n    }\r\n\r\n    function addTask(string memory _desc) public onlyOwner {\r\n        tasks.push(Task(_desc, TaskStatus.Pending));\r\n    }\r\n\r\n    function markTaskAsFinished(uint256 id) public onlyOwner {\r\n        require(id <= tasks.length, \"There is no such task !\");\r\n        tasks[id].status = TaskStatus.Finished;\r\n    }\r\n\r\n    function getAllTasks() public view returns (Task[] memory){\r\n        return tasks;\r\n    }\r\n\r\n    function getTaskById(uint256 id) public view returns (string memory, TaskStatus){\r\n        require(id <= tasks.length, \"There is no such task !\");\r\n        return (tasks[id].desc, tasks[id].status);\r\n    }\r\n\r\n    function deleteTask(uint256 id) public onlyOwner {\r\n        require(id <= tasks.length, \"There is no such task !\");\r\n        tasks[id] = tasks[tasks.length - 1];\r\n        tasks.pop();\r\n    }\r\n\r\n    function updateTaskDescription(uint256 id, string memory _desc) public onlyOwner {\r\n        require(id <= tasks.length, \"There is no such task !\");\r\n        tasks[id].desc = _desc;\r\n    }\r\n}",
  "sourcePath": "C:\\Users\\Tnesh\\Desktop\\dAPP-todo-List\\TodoListSmartContract\\contracts\\TaskToDo.sol",
  "compiler": {
    "name": "solc",
    "version": "0.8.13+commit.abaa5c0e.Emscripten.clang"
  },
  "schemaVersion": "3.4.16",
  "updatedAt": "2024-03-16T16:40:36.720Z",
  "networkType": "ethereum",
  "devdoc": {
    "kind": "dev",
    "methods": {},
    "version": 1
  },
  "userdoc": {
    "kind": "user",
    "methods": {},
    "version": 1
  }
}